:0300000002008A71
:0C008A00787FE4F6D8FD75810D020003BC
:10000300750800750901750C00750D08E4F50AF50E
:100013000BF508750901C3E50B950DE50C6480F834
:10002300E50A6480985020E509F4F5A0E50925E088
:10003300F509E50833F50812009675A0FF050BE5F1
:100043000B70D3050A80CFE4F50AF50BF5087509A3
:1000530080C3E50B950DE50C6480F8E50A64809890
:100063005021E509F4F5A0E508A2E713F508E50931
:1000730013F50912009675A0FF050BE50B70D20569
:060083000A80CEE4FEFF3E
:010089002254
:080096007FB47E49DEFEDFFCB1
:01009E00223F
:00000001FF
