:10018100065B4F666D7D077F6F3F065B4F666D7D3A
:04019100077F6F3F36
:1000F900E4F508F509F50AF50B780C7C00FD7BFFA2
:100109007A017981FE7F0A1200D3E4F508F509AD79
:1001190009AF09AE0812013D7FF47E0112016C0599
:1001290009E50970020508C39408E508648094800C
:0401390040DD80D64F
:10016C00EF4E6010007D027CC7DCFEDDFCEF1F70E3
:04017C00EF1E80EC06
:01018000225C
:06013D008E168F178D18CD
:1001430078197C007D007BFF7A01798B7E007F0A22
:100153001200D3E4F5A0E51825E025E0F51842A048
:0801630074192517F8E6F58078
:01016B002271
:0300000002019565
:0C019500787FE4F6D8FD7581220200F9A5
:10000300E709F608DFFA8046E709F208DFFA803EDF
:1000130088828C83E709F0A3DFFA8032E309F608CC
:10002300DFFA8078E309F208DFFA807088828C8334
:10003300E309F0A3DFFA806489828A83E0A3F608E8
:10004300DFFA805889828A83E0A3F208DFFA804CC2
:1000530080D280FA80C680D4806980F28033801099
:1000630080A680EA809A80A880DA80E280CA803302
:1000730089828A83ECFAE493A3C8C582C8CCC5837A
:10008300CCF0A3C8C582C8CCC583CCDFE9DEE7804A
:100093000D89828A83E493A3F608DFF9ECFAA9F0C9
:1000A300EDFB2289828A83ECFAE0A3C8C582C8CC1F
:1000B300C583CCF0A3C8C582C8CCC583CCDFEADE38
:1000C300E880DB89828A83E493A3F208DFF980CC9A
:1000D30088F0EF60010E4E60C388F0ED2402B40493
:1000E3000050B9F582EB2402B4040050AF2323453A
:0600F3008223900053730C
:00000001FF
