:0A017B00065B4F666D7D077F6F3F46
:1000F900E4F508F509E4F508F509AD09AF051201BC
:100109002D7F017E0012015AAD09E4FF12012D0570
:1001190009E50970020508C39408E508648094801C
:0401290040D880D169
:10015A00EF4E6010007D027CC7DCFEDDFCEF1F70F5
:04016A00EF1E80EC18
:01016E00226E
:04012D008F0A8D0B9D
:10013100780C7C007D007BFF7A01797B7E007F0A51
:100141001200D3E4F5A0E50B25E025E0F50B42A074
:08015100740C250AF8E6F580A4
:010159002283
:0300000002016F8B
:0C016F00787FE4F6D8FD7581150200F9D8
:10000300E709F608DFFA8046E709F208DFFA803EDF
:1000130088828C83E709F0A3DFFA8032E309F608CC
:10002300DFFA8078E309F208DFFA807088828C8334
:10003300E309F0A3DFFA806489828A83E0A3F608E8
:10004300DFFA805889828A83E0A3F208DFFA804CC2
:1000530080D280FA80C680D4806980F28033801099
:1000630080A680EA809A80A880DA80E280CA803302
:1000730089828A83ECFAE493A3C8C582C8CCC5837A
:10008300CCF0A3C8C582C8CCC583CCDFE9DEE7804A
:100093000D89828A83E493A3F608DFF9ECFAA9F0C9
:1000A300EDFB2289828A83ECFAE0A3C8C582C8CC1F
:1000B300C583CCF0A3C8C582C8CCC583CCDFEADE38
:1000C300E880DB89828A83E493A3F208DFF980CC9A
:1000D30088F0EF60010E4E60C388F0ED2402B40493
:1000E3000050B9F582EB2402B4040050AF2323453A
:0600F3008223900053730C
:00000001FF
