:1000030075080075098075A07F20B1251200613045
:10001300B1FD120061E508A2E713F508E50913F540
:100023000945087005F508750980E509F4F5A08010
:10003300D820B0D512006130B0FD120061E509256A
:10004300E0F509E50833F508E4B5090BE508B40163
:0E00530006750800750901E509F4F5A080ABFB
:040061007F147E008A
:10006500EF4E6010007D027CC7DCFEDDFCEF1F70EB
:04007500EF1E80EC0E
:010079002264
:0300000002007A81
:0C007A00787FE4F6D8FD758109020003D0
:00000001FF
